S00D000041746D656C2E7372656324
S11300000C942A000C943F000C943F000C943F0085
S11300100C943F000C943F000C943F000C943F0060
S11300200C943F000C943F000C943F000C943F0050
S11300300C943F000C943F000C943F000C943F0040
S11300400C943F000C943F000C943F000C943F0030
S11300500C943F0011241FBECFE5D8E0DEBFCDBF16
S113006010E0A0E6B0E0E0EEF3E002C005900D92EF
S1130070A43DB107D9F70E9494010C94EE010C94AD
S113008000008BBB88B38B7F88BB88B38D7F88BB14
S113009088B3816088BB8FE99FE00197F1F700C0C6
S11300A0000088B38E7F88BB8FE99FE00197F1F74A
S11300B000C00000089581E00E9441008FE39FE1A9
S11300C00197F1F700C0000008958FE59AEE0197BB
S11300D0F1F700C0000088E30E9441008FE19EE434
S11300E00197F1F700C0000088E30E9441009FEFF0
S11300F02BED85E0915020408040E1F700C00000E6
S113010088E30E94410088E30E9441008CE00E9441
S1130110410081E00E9441008FE39FE10197F1F7E4
S113012000C0000086E00E9441008FE19EE4019738
S1130130F1F700C0000008958BBB88B3846088BBCE
S113014088B38D7F88BB88B3816088BB8FE99FE0CB
S11301500197F1F700C0000088B38E7F88BB8FE958
S11301609FE00197F1F700C0000008950F931F93DB
S1130170CF93DF938C01C1E0D0E025C00F5F1F4F08
S11301800E949C008FE39FE10197F1F700C00000FB
S1130190C031D10549F480EC0E944100EFE3FFE156
S11301A03197F1F700C00000C032D10559F481E065
S11301B00E9441008FE39FE10197F1F700C0000026
S11301C0C1E0D0E02196F80180818111D7CFDF9181
S11301D0CF911F910F91089510BC87E689B988E1EA
S11301E08AB986E880BD08955D9BFECF8CB90895D9
S11301F05F9BFECF8CB10895CF93DF93EC0103C0D6
S11302000E94F400219688818111FACF8DE00E942A
S1130210F4008AE00E94F4002FEF83ED90E3215074
S113022080409040E1F700C00000DF91CF91089535
S1130230CF93C82F0E945B00C433D1F128F4C1339B
S1130240B1F0C33351F14AC0C73331F0C933D1F0EF
S1130250C63309F043C037C080E690E00E94B60080
S11302608AE690E00E94FC000E94B70141C088E742
S113027090E00E94B60082E890E00E94FC000E9498
S1130280C50136C080E990E00E94B60083E990E0A1
S11302900E94FC000E94BE012BC08AE990E00E94EB
S11302A0B6008DE990E00E94FC000E94CC0120C0C1
S11302B084EA90E00E94B60087EA90E00E94FC0085
S11302C00E94D30115C08EEA90E00E94B60081EB33
S11302D090E00E94FC000E94DA010AC088EB90E0E2
S11302E00E94B6008DEB90E00E94FC000E94E101A8
S11302F0CF910895019721F488B3886088BB08954D
S113030088B3877F88BB089582B3886082BB2FEF50
S113031085EA9EE0215080409040E1F700C0000053
S113032082B3877F82BB08958FEF84BB8ABB87BB70
S113033088E081BB80E090E00E947A010E94650021
S113034086EC90E00E94B6000E94EC008CEC90E0F9
S11303500E94FC0081E090E00E947A010E94F80073
S1130360C82F0E9484018C2F0E941801F7CF85B3F7
S1130370816085BB85B38D7F85BB089585B384601B
S113038085BB85B3877F85BB089585B38E7F85BB89
S113039085B3826085BB089585B38B7F85BB85B3A8
S11303A0886085BB089585B3816085BB85B3826011
S11303B085BB089585B3846085BB85B3886085BBA0
S11303C0089585B3816085BB85B3826085BB85B3A1
S11303D0846085BB85B3886085BB0895F894FFCF9E
S11303E04C20466F7277617264000D0A4C20466F90
S11303F072776172640D0A004C20526576657273DF
S113040065000D0A4C20526576657273650D0A000D
S11304105246000D0A52460D0A005252000D0A526D
S1130420520D0A004C53000D0A4C530D0A0052534E
S1130430000D0A52530D0A0053544F50000D0A5335
S1130440544F500D0A005354415254005265616494
S1070450793F0000EC
S9030000FC
